{
  "contractName": "BaseScheduler",
  "abi": [
    {
      "constant": false,
      "inputs": [
        {
          "name": "_toAddress",
          "type": "address"
        },
        {
          "name": "_callData",
          "type": "bytes"
        },
        {
          "name": "_uintArgs",
          "type": "uint256[8]"
        }
      ],
      "name": "schedule",
      "outputs": [
        {
          "name": "newRequest",
          "type": "address"
        }
      ],
      "payable": true,
      "stateMutability": "payable",
      "type": "function"
    },
    {
      "constant": true,
      "inputs": [],
      "name": "temporalUnit",
      "outputs": [
        {
          "name": "",
          "type": "uint8"
        }
      ],
      "payable": false,
      "stateMutability": "view",
      "type": "function"
    },
    {
      "constant": true,
      "inputs": [],
      "name": "factoryAddress",
      "outputs": [
        {
          "name": "",
          "type": "address"
        }
      ],
      "payable": false,
      "stateMutability": "view",
      "type": "function"
    },
    {
      "constant": true,
      "inputs": [],
      "name": "futureTransaction",
      "outputs": [
        {
          "name": "toAddress",
          "type": "address"
        },
        {
          "name": "callData",
          "type": "bytes"
        },
        {
          "name": "callGas",
          "type": "uint256"
        },
        {
          "name": "callValue",
          "type": "uint256"
        },
        {
          "name": "windowSize",
          "type": "uint256"
        },
        {
          "name": "windowStart",
          "type": "uint256"
        },
        {
          "name": "gasPrice",
          "type": "uint256"
        },
        {
          "name": "donation",
          "type": "uint256"
        },
        {
          "name": "payment",
          "type": "uint256"
        },
        {
          "name": "requiredDeposit",
          "type": "uint256"
        },
        {
          "name": "reservedWindowSize",
          "type": "uint256"
        },
        {
          "name": "freezePeriod",
          "type": "uint256"
        },
        {
          "name": "claimWindowSize",
          "type": "uint256"
        },
        {
          "name": "temporalUnit",
          "type": "uint8"
        }
      ],
      "payable": false,
      "stateMutability": "view",
      "type": "function"
    },
    {
      "payable": true,
      "stateMutability": "payable",
      "type": "fallback"
    },
    {
      "anonymous": false,
      "inputs": [
        {
          "indexed": false,
          "name": "request",
          "type": "address"
        }
      ],
      "name": "NewRequest",
      "type": "event"
    }
  ],
  "bytecode": "0x6060604052341561000f57600080fd5b610d8a8061001e6000396000f300606060405260043610610062576000357c0100000000000000000000000000000000000000000000000000000000900463ffffffff1680630801b654146100645780633c8a072e14610142578063966dae0e14610179578063e666bbcb146101ce575b005b610100600480803573ffffffffffffffffffffffffffffffffffffffff1690602001909190803590602001908201803590602001908080601f0160208091040260200160405190810160405280939291908181526020018383808284378201915050505050509190806101000190600880602002604051908101604052809291908260086020028082843782019150505050509190505061030e565b604051808273ffffffffffffffffffffffffffffffffffffffff1673ffffffffffffffffffffffffffffffffffffffff16815260200191505060405180910390f35b341561014d57600080fd5b6101556106e0565b6040518082600281111561016557fe5b60ff16815260200191505060405180910390f35b341561018457600080fd5b61018c6106f3565b604051808273ffffffffffffffffffffffffffffffffffffffff1673ffffffffffffffffffffffffffffffffffffffff16815260200191505060405180910390f35b34156101d957600080fd5b6101e1610718565b604051808f73ffffffffffffffffffffffffffffffffffffffff1673ffffffffffffffffffffffffffffffffffffffff168152602001806020018e81526020018d81526020018c81526020018b81526020018a815260200189815260200188815260200187815260200186815260200185815260200184815260200183600281111561026957fe5b60ff16815260200182810382528f8181546001816001161561010002031660029004815260200191508054600181600116156101000203166002900480156102f25780601f106102c7576101008083540402835291602001916102f2565b820191906000526020600020905b8154815290600101906020018083116102d557829003601f168201915b50509f5050505050505050505050505050505060405180910390f35b60006001600281111561031d57fe5b600060149054906101000a900460ff16600281111561033857fe5b14156103d557600173__SchedulerLib__________________________6314c84e5d90916000604051602001526040518263ffffffff167c01000000000000000000000000000000000000000000000000000000000281526004018082815260200191505060206040518083038186803b15156103b457600080fd5b6102c65a03f415156103c557600080fd5b505050604051805190505061049f565b6002808111156103e157fe5b600060149054906101000a900460ff1660028111156103fc57fe5b141561049957600173__SchedulerLib__________________________63e9d2437790916000604051602001526040518263ffffffff167c01000000000000000000000000000000000000000000000000000000000281526004018082815260200191505060206040518083038186803b151561047857600080fd5b6102c65a03f4151561048957600080fd5b505050604051805190505061049e565b600080fd5b5b83600160000160006101000a81548173ffffffffffffffffffffffffffffffffffffffff021916908373ffffffffffffffffffffffffffffffffffffffff160217905550826001800190805190602001906104fb929190610cb9565b5081600060088110151561050b57fe5b602002015160016002018190555081600160088110151561052857fe5b602002015160016003018190555081600260088110151561054557fe5b602002015160016004018190555081600360088110151561056257fe5b602002015160016005018190555081600460088110151561057f57fe5b602002015160016006018190555081600560088110151561059c57fe5b60200201516001600701819055508160066008811015156105b957fe5b60200201516001600801819055508160076008811015156105d657fe5b6020020151600160090181905550600060149054906101000a900460ff166001600d0160006101000a81548160ff0219169083600281111561061457fe5b021790555061064e6000809054906101000a900473ffffffffffffffffffffffffffffffffffffffff16600161079e90919063ffffffff16565b905060008173ffffffffffffffffffffffffffffffffffffffff161415151561067657600080fd5b7f2749295aa7ffdbd4d16719dc03d592cd081eebd9bb790ceedce201a40675fc0381604051808273ffffffffffffffffffffffffffffffffffffffff1673ffffffffffffffffffffffffffffffffffffffff16815260200191505060405180910390a19392505050565b600060149054906101000a900460ff1681565b6000809054906101000a900473ffffffffffffffffffffffffffffffffffffffff1681565b60018060000160009054906101000a900473ffffffffffffffffffffffffffffffffffffffff1690806001019080600201549080600301549080600401549080600501549080600601549080600701549080600801549080600901549080600a01549080600b01549080600c01549080600d0160009054906101000a900460ff1690508e565b600080600083915073__MathLib_______________________________637ae2b5c773__PaymentLib____________________________635ee345e4886008015489600701548a600201548b600301548c6006015473__RequestLib____________________________6345104b166000604051602001526040518163ffffffff167c010000000000000000000000000000000000000000000000000000000002815260040160206040518083038186803b151561085b57600080fd5b6102c65a03f4151561086c57600080fd5b505050604051805190506000604051602001526040518763ffffffff167c010000000000000000000000000000000000000000000000000000000002815260040180878152602001868152602001858152602001848152602001838152602001828152602001965050505050505060206040518083038186803b15156108f157600080fd5b6102c65a03f4151561090257600080fd5b505050604051805190503073ffffffffffffffffffffffffffffffffffffffff16316000604051602001526040518363ffffffff167c0100000000000000000000000000000000000000000000000000000000028152600401808381526020018281526020019250505060206040518083038186803b151561098357600080fd5b6102c65a03f4151561099457600080fd5b5050506040518051905090508173ffffffffffffffffffffffffffffffffffffffff1663d7ceab4c826060604051908101604052803373ffffffffffffffffffffffffffffffffffffffff1673ffffffffffffffffffffffffffffffffffffffff16815260200173ecc9c5fff8937578141592e7e62c2d2e364311b873ffffffffffffffffffffffffffffffffffffffff1673ffffffffffffffffffffffffffffffffffffffff1681526020018960000160009054906101000a900473ffffffffffffffffffffffffffffffffffffffff1673ffffffffffffffffffffffffffffffffffffffff1673ffffffffffffffffffffffffffffffffffffffff16815250610180604051908101604052808a6007015481526020018a6008015481526020018a600c015481526020018a600b015481526020018a600a015481526020018a600d0160009054906101000a900460ff166002811115610af157fe5b81526020018a6004015481526020018a6005015481526020018a6002015481526020018a6003015481526020018a6006015481526020018a60090154815250896001016000604051602001526040518563ffffffff167c01000000000000000000000000000000000000000000000000000000000281526004018084600360200280838360005b83811015610b93578082015181840152602081019050610b78565b5050505090500183600c60200280838360005b83811015610bc1578082015181840152602081019050610ba6565b5050505090500180602001828103825283818154600181600116156101000203166002900481526020019150805460018160011615610100020316600290048015610c4d5780601f10610c2257610100808354040283529160200191610c4d565b820191906000526020600020905b815481529060010190602001808311610c3057829003601f168201915b50509450505050506020604051808303818588803b1515610c6d57600080fd5b6125ee5a03f11515610c7e57600080fd5b5050505060405180519050925060008373ffffffffffffffffffffffffffffffffffffffff1614151515610cb157600080fd5b505092915050565b828054600181600116156101000203166002900490600052602060002090601f016020900481019282601f10610cfa57805160ff1916838001178555610d28565b82800160010185558215610d28579182015b82811115610d27578251825591602001919060010190610d0c565b5b509050610d359190610d39565b5090565b610d5b91905b80821115610d57576000816000905550600101610d3f565b5090565b905600a165627a7a72305820212bbfbe0a61fc3be63ce686fa3d2b4e17623b6cb271b014c9c8682a37ea60a40029",
  "source": "pragma solidity ^0.4.18;\n\nimport \"../Interface/SchedulerInterface.sol\";\nimport \"../Library/RequestScheduleLib.sol\";\nimport \"../Library/SchedulerLib.sol\";\n\n/**\n * @title BaseScheduler\n * @dev The foundational contract which provides the API for scheduling future transactions on the Alarm Client.\n */\ncontract BaseScheduler is SchedulerInterface {\n    using SchedulerLib for SchedulerLib.FutureTransaction;\n\n    /*\n     * @dev Fallback function to be able to receive ether. This can occur\n     *  legitimately when scheduling fails due to a validation error.\n     */\n    function() public payable {}\n\n    /// Event that bubbles up the address of new requests made with this scheduler.\n    event NewRequest(address request);\n\n    /**\n     * @dev Schedules a new TransactionRequest using the 'full' parameters.\n     * @param _toAddress The address destination of the transaction.\n     * @param _callData The bytecode that will be included with the transaction.\n     * @param _uintArgs [0] The callGas of the transaction.\n     * @param _uintArgs [1] The value of ether to be sent with the transaction.\n     * @param _uintArgs [2] The size of the execution window of the transaction.\n     * @param _uintArgs [3] The (block or timestamp) of when the execution window starts.\n     * @param _uintArgs [4] The gasPrice which will be used to execute this transaction.\n     * @param _uintArgs [5] The donation value attached to this transaction.\n     * @param _uintArgs [6] The payment value attached to this transaction.\n     * @param _uintArgs [7] The deposit required to claim this transaction.\n     * @return The address of the new TransactionRequest.   \n     */ \n    function schedule (\n        address   _toAddress,\n        bytes     _callData,\n        uint[8]   _uintArgs\n    )\n        doReset\n        public payable returns (address newRequest)\n    {\n        futureTransaction.toAddress         = _toAddress;\n        futureTransaction.callData          = _callData;\n        futureTransaction.callGas           = _uintArgs[0];\n        futureTransaction.callValue         = _uintArgs[1];\n        futureTransaction.windowSize        = _uintArgs[2];\n        futureTransaction.windowStart       = _uintArgs[3];\n        futureTransaction.gasPrice          = _uintArgs[4];\n        futureTransaction.donation          = _uintArgs[5];\n        futureTransaction.payment           = _uintArgs[6];\n        futureTransaction.requiredDeposit   = _uintArgs[7];\n\n        futureTransaction.temporalUnit      = temporalUnit;\n\n        newRequest = futureTransaction.schedule(factoryAddress);\n        require( newRequest != 0x0 );\n\n        NewRequest(newRequest);\n        /// Automatically returns newRequest\n    }\n}\n",
  "sourcePath": "/home/logan/Work/eac-canary/contracts/EAC/Scheduler/BaseScheduler.sol",
  "compiler": {
    "name": "solc",
    "version": "0.4.18+commit.9cf6e910.Emscripten.clang"
  },
  "schemaVersion": "1.0.1",
  "updatedAt": "2018-01-26T00:22:48.754Z"
}