{
  "contractName": "Canary",
  "abi": [
    {
      "constant": false,
      "inputs": [],
      "name": "heartbeat",
      "outputs": [],
      "payable": true,
      "stateMutability": "payable",
      "type": "function"
    },
    {
      "constant": true,
      "inputs": [],
      "name": "isAlive",
      "outputs": [
        {
          "name": "",
          "type": "bool"
        }
      ],
      "payable": false,
      "stateMutability": "view",
      "type": "function"
    },
    {
      "constant": true,
      "inputs": [],
      "name": "lastHeartbeat",
      "outputs": [
        {
          "name": "",
          "type": "uint256"
        }
      ],
      "payable": false,
      "stateMutability": "view",
      "type": "function"
    },
    {
      "constant": false,
      "inputs": [],
      "name": "initialize",
      "outputs": [],
      "payable": true,
      "stateMutability": "payable",
      "type": "function"
    },
    {
      "constant": true,
      "inputs": [],
      "name": "owner",
      "outputs": [
        {
          "name": "",
          "type": "address"
        }
      ],
      "payable": false,
      "stateMutability": "view",
      "type": "function"
    },
    {
      "constant": true,
      "inputs": [],
      "name": "initializedAt",
      "outputs": [
        {
          "name": "",
          "type": "uint256"
        }
      ],
      "payable": false,
      "stateMutability": "view",
      "type": "function"
    },
    {
      "constant": true,
      "inputs": [],
      "name": "heartbeatCount",
      "outputs": [
        {
          "name": "",
          "type": "uint256"
        }
      ],
      "payable": false,
      "stateMutability": "view",
      "type": "function"
    },
    {
      "constant": true,
      "inputs": [],
      "name": "txRequest",
      "outputs": [
        {
          "name": "",
          "type": "address"
        }
      ],
      "payable": false,
      "stateMutability": "view",
      "type": "function"
    },
    {
      "constant": true,
      "inputs": [],
      "name": "scheduler",
      "outputs": [
        {
          "name": "",
          "type": "address"
        }
      ],
      "payable": false,
      "stateMutability": "view",
      "type": "function"
    },
    {
      "constant": false,
      "inputs": [],
      "name": "decomission",
      "outputs": [
        {
          "name": "",
          "type": "bool"
        }
      ],
      "payable": false,
      "stateMutability": "nonpayable",
      "type": "function"
    },
    {
      "constant": false,
      "inputs": [
        {
          "name": "_value",
          "type": "uint256"
        }
      ],
      "name": "scheduleHeartbeat",
      "outputs": [
        {
          "name": "",
          "type": "bool"
        }
      ],
      "payable": false,
      "stateMutability": "nonpayable",
      "type": "function"
    },
    {
      "inputs": [
        {
          "name": "_scheduler",
          "type": "address"
        }
      ],
      "payable": false,
      "stateMutability": "nonpayable",
      "type": "constructor"
    },
    {
      "payable": true,
      "stateMutability": "payable",
      "type": "fallback"
    }
  ],
  "bytecode": "0x6060604052341561000f57600080fd5b6040516020806109dc8339810160405280805190602001909190505033600560006101000a81548173ffffffffffffffffffffffffffffffffffffffff021916908373ffffffffffffffffffffffffffffffffffffffff16021790555080600360006101000a81548173ffffffffffffffffffffffffffffffffffffffff021916908373ffffffffffffffffffffffffffffffffffffffff1602179055505061091f806100bd6000396000f3006060604052600436106100af576000357c0100000000000000000000000000000000000000000000000000000000900463ffffffff1680633defb962146100c45780634136aa35146100ce57806369c1a712146100fb5780638129fc1c146101245780638da5cb5b1461012e57806391cf6d3e14610183578063af3309d8146101ac578063b17bdabc146101d5578063d1ad17bf1461022a578063d52a5fc41461027f578063dc18f720146102ac575b6100b76102e7565b15156100c257600080fd5b005b6100cc610308565b005b34156100d957600080fd5b6100e16102e7565b604051808215151515815260200191505060405180910390f35b341561010657600080fd5b61010e610436565b6040518082815260200191505060405180910390f35b61012c61043c565b005b341561013957600080fd5b610141610573565b604051808273ffffffffffffffffffffffffffffffffffffffff1673ffffffffffffffffffffffffffffffffffffffff16815260200191505060405180910390f35b341561018e57600080fd5b610196610599565b6040518082815260200191505060405180910390f35b34156101b757600080fd5b6101bf61059f565b6040518082815260200191505060405180910390f35b34156101e057600080fd5b6101e86105a5565b604051808273ffffffffffffffffffffffffffffffffffffffff1673ffffffffffffffffffffffffffffffffffffffff16815260200191505060405180910390f35b341561023557600080fd5b61023d6105cb565b604051808273ffffffffffffffffffffffffffffffffffffffff1673ffffffffffffffffffffffffffffffffffffffff16815260200191505060405180910390f35b341561028a57600080fd5b6102926105f1565b604051808215151515815260200191505060405180910390f35b34156102b757600080fd5b6102cd60048080359060200190919050506106d2565b604051808215151515815260200191505060405180910390f35b6000806000541115156102f957600080fd5b42612a30600154011015905090565b600460009054906101000a900473ffffffffffffffffffffffffffffffffffffffff1673ffffffffffffffffffffffffffffffffffffffff163373ffffffffffffffffffffffffffffffffffffffff1614151561036457600080fd5b61036c6102e7565b151561037757600080fd5b3073ffffffffffffffffffffffffffffffffffffffff1663dc18f7206671afd498d000006000604051602001526040518263ffffffff167c010000000000000000000000000000000000000000000000000000000002815260040180828152602001915050602060405180830381600087803b15156103f557600080fd5b6102c65a03f1151561040657600080fd5b50505060405180519050151561041b57600080fd5b42600181905550600260008154809291906001019190505550565b60015481565b600560009054906101000a900473ffffffffffffffffffffffffffffffffffffffff1673ffffffffffffffffffffffffffffffffffffffff163373ffffffffffffffffffffffffffffffffffffffff1614151561049857600080fd5b600080541415156104a857600080fd5b670de0b6b3a764000034101515156104bf57600080fd5b42600081905550426001819055503073ffffffffffffffffffffffffffffffffffffffff1663dc18f7206671afd498d000006000604051602001526040518263ffffffff167c010000000000000000000000000000000000000000000000000000000002815260040180828152602001915050602060405180830381600087803b151561054b57600080fd5b6102c65a03f1151561055c57600080fd5b50505060405180519050151561057157600080fd5b565b600560009054906101000a900473ffffffffffffffffffffffffffffffffffffffff1681565b60005481565b60025481565b600460009054906101000a900473ffffffffffffffffffffffffffffffffffffffff1681565b600360009054906101000a900473ffffffffffffffffffffffffffffffffffffffff1681565b6000600560009054906101000a900473ffffffffffffffffffffffffffffffffffffffff1673ffffffffffffffffffffffffffffffffffffffff163373ffffffffffffffffffffffffffffffffffffffff1614151561064f57600080fd5b60008081905550600560009054906101000a900473ffffffffffffffffffffffffffffffffffffffff1673ffffffffffffffffffffffffffffffffffffffff166108fc3073ffffffffffffffffffffffffffffffffffffffff16319081150290604051600060405180830381858888f1935050505015156106cf57600080fd5b90565b6000803073ffffffffffffffffffffffffffffffffffffffff163373ffffffffffffffffffffffffffffffffffffffff1614151561070f57600080fd5b600360009054906101000a900473ffffffffffffffffffffffffffffffffffffffff1673ffffffffffffffffffffffffffffffffffffffff16630801b654843061010060405190810160405280622dc6c0815260200160008152602001610e108152602001611c20420181526020016402540be40081526020016000815260200161012c815260200160018152506000604051602001526040518463ffffffff167c0100000000000000000000000000000000000000000000000000000000028152600401808373ffffffffffffffffffffffffffffffffffffffff1673ffffffffffffffffffffffffffffffffffffffff1681526020018060200183600860200280838360005b83811015610832578082015181840152602081019050610817565b50505050905001828103825260048152602001807f3defb9620000000000000000000000000000000000000000000000000000000081525060200193505050506020604051808303818588803b151561088a57600080fd5b6125ee5a03f1151561089b57600080fd5b5050505060405180519050905080600460006101000a81548173ffffffffffffffffffffffffffffffffffffffff021916908373ffffffffffffffffffffffffffffffffffffffff16021790555060019150509190505600a165627a7a72305820added1b91d127be525a929ba78620604e2d993e0fa9e8a89cb5633b9bdd761030029",
  "source": "pragma solidity ^0.4.18;\n\nimport \"./EAC/Interface/SchedulerInterface.sol\";\nimport \"./EAC/Interface/TransactionRequestInterface.sol\";\n\n/**\n * @title Ethereum Alarm Clock Canary 0.9.0\n * @dev Based on the original canary code by Piper Merriam:\n * http://blog.ethereum-alarm-clock.com/blog/2015/12/25/say-hello-to-the-reliability-canary\n */\ncontract Canary {\n    uint public initializedAt;\n    uint public lastHeartbeat;\n    uint public heartbeatCount;\n    SchedulerInterface public scheduler;\n    TransactionRequestInterface public txRequest;\n\n    address public owner;\n\n    function Canary(address _scheduler) public {\n        owner = msg.sender;\n        scheduler = SchedulerInterface(_scheduler);\n    }\n\n    function ()\n        public payable\n    {\n        require(isAlive());\n        // Thanks for funding the canary!\n    }\n\n    function initialize()\n        public payable\n    {\n        require(msg.sender == owner);\n        require(initializedAt == 0);\n        require(msg.value >= 1 ether);\n        initializedAt = block.timestamp;\n        lastHeartbeat = block.timestamp;\n        require( this.scheduleHeartbeat(32 finney) );\n        // The endowment is roughly 32 finney.\n    }\n\n    /**\n     * This function must be external because we recontextualize the calls\n     * so that msg.sender is the address of this contract and not the address of\n     * the calling address (owner in initialize, txRequest in heartbeat)\n     */\n    function scheduleHeartbeat(uint _value)\n        external returns (bool)\n    {\n        require(msg.sender == address(this));\n\n        address newTxRequest = scheduler.schedule.value(_value)(\n            address(this),\n            hex\"3defb962\",                  // bytes4(sha3(\"heartbeat()\"))\n            [\n                3000000,\n                0,\n                1 hours,\n                block.timestamp + 2 hours,\n                10000000000 wei,            // 10 gwei\n                0,\n                300 wei,\n                1 wei\n            ]\n        );\n        txRequest = TransactionRequestInterface(newTxRequest);\n        return true;\n    }\n\n    function heartbeat()\n        public payable\n    {\n        // Only the scheduled tranasaction is allowed to be called.\n        require(msg.sender == address(txRequest));\n        require(isAlive());\n        require( this.scheduleHeartbeat(32 finney) );\n\n        lastHeartbeat = block.timestamp;\n        heartbeatCount++;\n    }\n\n    function isAlive()\n        public view returns (bool)\n    {\n        require(initializedAt > 0);\n        return lastHeartbeat + 3 hours >= block.timestamp;\n    }\n\n    function decomission()\n        public returns (bool)\n    {\n        require(msg.sender == owner);\n        initializedAt = 0;  // isAlive() will return false\n        owner.transfer(this.balance);\n    }\n}",
  "sourcePath": "/home/logan/Work/eac-canary/contracts/Canary.sol",
  "compiler": {
    "name": "solc",
    "version": "0.4.18+commit.9cf6e910.Emscripten.clang"
  },
  "schemaVersion": "1.0.1",
  "updatedAt": "2018-01-26T00:22:48.731Z"
}