{
  "contractName": "IterTools",
  "abi": [
    {
      "constant": true,
      "inputs": [
        {
          "name": "_values",
          "type": "bool[6]"
        }
      ],
      "name": "all",
      "outputs": [
        {
          "name": "",
          "type": "bool"
        }
      ],
      "payable": false,
      "stateMutability": "pure",
      "type": "function"
    }
  ],
  "bytecode": "0x6060604052341561000f57600080fd5b6101078061001e6000396000f300606060405260043610603f576000357c0100000000000000000000000000000000000000000000000000000000900463ffffffff1680635fa77dac146044575b600080fd5b607b6004808060c0019060068060200260405190810160405280929190826006602002808284378201915050505050919050506095565b604051808215151515815260200191505060405180910390f35b600080600090505b600681101560d057828160068110151560b257fe5b6020020151151560c4576000915060d5565b8080600101915050609d565b600191505b509190505600a165627a7a723058202bc6c1baaa625f16479e50235eadc6f331c44603cea9c10f7a5bb4e889788fa50029",
  "source": "pragma solidity ^0.4.18;\n\n/**\n * @title IterTools\n * @dev Utility library that iterates through a boolean array of length 6.\n */\nlibrary IterTools {\n    /*\n     * @dev Return true if all of the values in the boolean array are true.\n     * @param _values A boolean array of length 6.\n     * @return True if all values are true, False if _any_ are false.\n     */\n    function all(bool[6] _values) \n        public pure returns (bool)\n    {\n        for (uint i = 0; i < _values.length; i++) {\n            if (!_values[i]) {\n                return false;\n            }\n        }\n        return true;\n    }\n}\n",
  "sourcePath": "/home/logan/Work/eac-canary/contracts/EAC/IterTools.sol",
  "compiler": {
    "name": "solc",
    "version": "0.4.18+commit.9cf6e910.Emscripten.clang"
  },
  "schemaVersion": "1.0.1",
  "updatedAt": "2018-01-26T00:22:48.733Z"
}