{
  "contractName": "SimpleToken",
  "abi": [
    {
      "constant": true,
      "inputs": [],
      "name": "rate",
      "outputs": [
        {
          "name": "",
          "type": "uint256"
        }
      ],
      "payable": false,
      "stateMutability": "view",
      "type": "function"
    },
    {
      "constant": true,
      "inputs": [
        {
          "name": "_who",
          "type": "address"
        }
      ],
      "name": "balanceOf",
      "outputs": [
        {
          "name": "balance",
          "type": "uint256"
        }
      ],
      "payable": false,
      "stateMutability": "view",
      "type": "function"
    },
    {
      "constant": true,
      "inputs": [],
      "name": "owner",
      "outputs": [
        {
          "name": "",
          "type": "address"
        }
      ],
      "payable": false,
      "stateMutability": "view",
      "type": "function"
    },
    {
      "constant": false,
      "inputs": [
        {
          "name": "_to",
          "type": "address"
        },
        {
          "name": "_amount",
          "type": "uint256"
        }
      ],
      "name": "transfer",
      "outputs": [
        {
          "name": "success",
          "type": "bool"
        }
      ],
      "payable": false,
      "stateMutability": "nonpayable",
      "type": "function"
    },
    {
      "constant": false,
      "inputs": [],
      "name": "buyTokens",
      "outputs": [
        {
          "name": "success",
          "type": "bool"
        }
      ],
      "payable": true,
      "stateMutability": "payable",
      "type": "function"
    },
    {
      "inputs": [
        {
          "name": "_initialSupply",
          "type": "uint256"
        }
      ],
      "payable": false,
      "stateMutability": "nonpayable",
      "type": "constructor"
    }
  ],
  "bytecode": "0x6060604052341561000f57600080fd5b60405160208061049283398101604052808051906020019091905050336000806101000a81548173ffffffffffffffffffffffffffffffffffffffff021916908373ffffffffffffffffffffffffffffffffffffffff16021790555080600160008060009054906101000a900473ffffffffffffffffffffffffffffffffffffffff1673ffffffffffffffffffffffffffffffffffffffff1673ffffffffffffffffffffffffffffffffffffffff16815260200190815260200160002081905550506103b2806100e06000396000f30060606040526004361061006d576000357c0100000000000000000000000000000000000000000000000000000000900463ffffffff1680632c4e722e1461007257806370a082311461009b5780638da5cb5b146100e8578063a9059cbb1461013d578063d0febe4c14610197575b600080fd5b341561007d57600080fd5b6100856101b9565b6040518082815260200191505060405180910390f35b34156100a657600080fd5b6100d2600480803573ffffffffffffffffffffffffffffffffffffffff169060200190919050506101be565b6040518082815260200191505060405180910390f35b34156100f357600080fd5b6100fb610207565b604051808273ffffffffffffffffffffffffffffffffffffffff1673ffffffffffffffffffffffffffffffffffffffff16815260200191505060405180910390f35b341561014857600080fd5b61017d600480803573ffffffffffffffffffffffffffffffffffffffff1690602001909190803590602001909190505061022c565b604051808215151515815260200191505060405180910390f35b61019f61031f565b604051808215151515815260200191505060405180910390f35b601e81565b6000600160008373ffffffffffffffffffffffffffffffffffffffff1673ffffffffffffffffffffffffffffffffffffffff168152602001908152602001600020549050919050565b6000809054906101000a900473ffffffffffffffffffffffffffffffffffffffff1681565b600081600160003373ffffffffffffffffffffffffffffffffffffffff1673ffffffffffffffffffffffffffffffffffffffff1681526020019081526020016000205411151561027b57600080fd5b81600160003373ffffffffffffffffffffffffffffffffffffffff1673ffffffffffffffffffffffffffffffffffffffff1681526020019081526020016000206000828254039250508190555081600160008573ffffffffffffffffffffffffffffffffffffffff1673ffffffffffffffffffffffffffffffffffffffff168152602001908152602001600020600082825401925050819055506001905092915050565b6000803411151561032f57600080fd5b601e3402600160003373ffffffffffffffffffffffffffffffffffffffff1673ffffffffffffffffffffffffffffffffffffffff1681526020019081526020016000206000828254019250508190555060019050905600a165627a7a723058200342bdc87d385892894affba4ec572681069247dc568bb10a86e6a67d13510170029",
  "source": "pragma solidity ^0.4.18;\n\n/// Super simple token contract that moves funds into the owner account on creation and\n/// only exposes an API to be used for `test/proxy.js`\ncontract SimpleToken {\n\n    address public owner;\n\n    mapping(address => uint) balances;\n\n    function SimpleToken (uint _initialSupply) public {\n        owner = msg.sender;\n        balances[owner] = _initialSupply;\n    }\n\n    function transfer (address _to, uint _amount)\n        public returns (bool success)\n    {\n        require(balances[msg.sender] > _amount);\n        balances[msg.sender] -= _amount;\n        balances[_to] += _amount;\n        success = true;\n    }\n\n    uint public constant rate = 30;\n\n    function buyTokens()\n        public payable returns (bool success)\n    {\n        require(msg.value > 0);\n        balances[msg.sender] += msg.value * rate;\n        success = true;\n    }\n\n    function balanceOf (address _who)\n        public view returns (uint balance)\n    {\n        balance = balances[_who];\n    }\n}\n",
  "sourcePath": "/home/logan/Work/eac-canary/contracts/EAC/_test/SimpleToken.sol",
  "compiler": {
    "name": "solc",
    "version": "0.4.18+commit.9cf6e910.Emscripten.clang"
  },
  "schemaVersion": "1.0.1",
  "updatedAt": "2018-01-26T00:22:48.757Z"
}